{
  "contractName": "OLIVTokenStorage",
  "abi": [
    {
      "constant": true,
      "inputs": [],
      "name": "BASE",
      "outputs": [
        {
          "internalType": "uint256",
          "name": "",
          "type": "uint256"
        }
      ],
      "payable": false,
      "stateMutability": "view",
      "type": "function"
    },
    {
      "constant": true,
      "inputs": [],
      "name": "decimals",
      "outputs": [
        {
          "internalType": "uint8",
          "name": "",
          "type": "uint8"
        }
      ],
      "payable": false,
      "stateMutability": "view",
      "type": "function"
    },
    {
      "constant": true,
      "inputs": [],
      "name": "gov",
      "outputs": [
        {
          "internalType": "address",
          "name": "",
          "type": "address"
        }
      ],
      "payable": false,
      "stateMutability": "view",
      "type": "function"
    },
    {
      "constant": true,
      "inputs": [],
      "name": "incentivizer",
      "outputs": [
        {
          "internalType": "address",
          "name": "",
          "type": "address"
        }
      ],
      "payable": false,
      "stateMutability": "view",
      "type": "function"
    },
    {
      "constant": true,
      "inputs": [],
      "name": "initSupply",
      "outputs": [
        {
          "internalType": "uint256",
          "name": "",
          "type": "uint256"
        }
      ],
      "payable": false,
      "stateMutability": "view",
      "type": "function"
    },
    {
      "constant": true,
      "inputs": [],
      "name": "internalDecimals",
      "outputs": [
        {
          "internalType": "uint256",
          "name": "",
          "type": "uint256"
        }
      ],
      "payable": false,
      "stateMutability": "view",
      "type": "function"
    },
    {
      "constant": true,
      "inputs": [],
      "name": "name",
      "outputs": [
        {
          "internalType": "string",
          "name": "",
          "type": "string"
        }
      ],
      "payable": false,
      "stateMutability": "view",
      "type": "function"
    },
    {
      "constant": true,
      "inputs": [],
      "name": "olivsScalingFactor",
      "outputs": [
        {
          "internalType": "uint256",
          "name": "",
          "type": "uint256"
        }
      ],
      "payable": false,
      "stateMutability": "view",
      "type": "function"
    },
    {
      "constant": true,
      "inputs": [],
      "name": "pendingGov",
      "outputs": [
        {
          "internalType": "address",
          "name": "",
          "type": "address"
        }
      ],
      "payable": false,
      "stateMutability": "view",
      "type": "function"
    },
    {
      "constant": true,
      "inputs": [],
      "name": "rebaser",
      "outputs": [
        {
          "internalType": "address",
          "name": "",
          "type": "address"
        }
      ],
      "payable": false,
      "stateMutability": "view",
      "type": "function"
    },
    {
      "constant": true,
      "inputs": [],
      "name": "symbol",
      "outputs": [
        {
          "internalType": "string",
          "name": "",
          "type": "string"
        }
      ],
      "payable": false,
      "stateMutability": "view",
      "type": "function"
    }
  ],
  "bytecode": "0x608060405234801561001057600080fd5b506103e6806100206000396000f3fe608060405234801561001057600080fd5b50600436106100c95760003560e01c806364dd48f51161008157806397d63f931161005b57806397d63f93146101d4578063ba9de2aa146101dc578063ec342ad0146101e4576100c9565b806364dd48f5146101aa5780636fc6407c146101c457806395d89b41146101cc576100c9565b806312d43a51116100b257806312d43a511461017c5780632524081014610184578063313ce5671461018c576100c9565b806306fdde03146100ce57806311fd8a831461014b575b600080fd5b6100d66101ec565b6040805160208082528351818301528351919283929083019185019080838360005b838110156101105781810151838201526020016100f8565b50505050905090810190601f16801561013d5780820380516001836020036101000a031916815260200191505b509250505060405180910390f35b610153610297565b6040805173ffffffffffffffffffffffffffffffffffffffff9092168252519081900360200190f35b6101536102b3565b6101536102d4565b6101946102f0565b6040805160ff9092168252519081900360200190f35b6101b26102f9565b60408051918252519081900360200190f35b610153610307565b6100d6610323565b6101b2610399565b6101b261039f565b6101b26103a5565b60018054604080516020600284861615610100027fffffffffffffffffffffffffffffffffffffffffffffffffffffffffffffffff0190941693909304601f8101849004840282018401909252818152929183018282801561028f5780601f106102645761010080835404028352916020019161028f565b820191906000526020600020905b81548152906001019060200180831161027257829003601f168201915b505050505081565b60055473ffffffffffffffffffffffffffffffffffffffff1681565b600354610100900473ffffffffffffffffffffffffffffffffffffffff1681565b60045473ffffffffffffffffffffffffffffffffffffffff1681565b60035460ff1681565b69d3c21bcecceda100000081565b60065473ffffffffffffffffffffffffffffffffffffffff1681565b600280546040805160206001841615610100027fffffffffffffffffffffffffffffffffffffffffffffffffffffffffffffffff01909316849004601f8101849004840282018401909252818152929183018282801561028f5780601f106102645761010080835404028352916020019161028f565b600b5481565b60085481565b670de0b6b3a76400008156fea265627a7a72315820256ab8b66c20e3f276a34be6891bf8649886ded6c5148df4a422985dcd59fafe64736f6c63430005110032",
  "source": "pragma solidity 0.5.17;\r\n\r\nimport \"../lib/SafeMath.sol\";\r\n\r\n// Storage for a OLIV token\r\ncontract OLIVTokenStorage {\r\n\r\n    using SafeMath for uint256;\r\n\r\n    /**\r\n     * @dev Guard variable for re-entrancy checks. Not currently used\r\n     */\r\n    bool internal _notEntered;\r\n\r\n    /**\r\n     * @notice EIP-20 token name for this token\r\n     */\r\n    string public name;\r\n\r\n    /**\r\n     * @notice EIP-20 token symbol for this token\r\n     */\r\n    string public symbol;\r\n\r\n    /**\r\n     * @notice EIP-20 token decimals for this token\r\n     */\r\n    uint8 public decimals;\r\n\r\n    /**\r\n     * @notice Governor for this contract\r\n     */\r\n    address public gov;\r\n\r\n    /**\r\n     * @notice Pending governance for this contract\r\n     */\r\n    address public pendingGov;\r\n\r\n    /**\r\n     * @notice Approved rebaser for this contract\r\n     */\r\n    address public rebaser;\r\n\r\n    /**\r\n     * @notice Reserve address of OLIV protocol\r\n     */\r\n    address public incentivizer;\r\n\r\n    /**\r\n     * @notice Total supply of OLIVs\r\n     */\r\n    uint256 internal _totalSupply;\r\n\r\n    /**\r\n     * @notice Internal decimals used to handle scaling factor\r\n     */\r\n    uint256 public constant internalDecimals = 10**24;\r\n\r\n    /**\r\n     * @notice Used for percentage maths\r\n     */\r\n    uint256 public constant BASE = 10**18;\r\n\r\n    /**\r\n     * @notice Scaling factor that adjusts everyone's balances\r\n     */\r\n    uint256 public olivsScalingFactor;\r\n\r\n    mapping (address => uint256) internal _olivBalances;\r\n\r\n    mapping (address => mapping (address => uint256)) internal _allowedFragments;\r\n\r\n    uint256 public initSupply;\r\n\r\n}\r\n",
  "sourcePath": "D:\\GitHub\\OliveFarm\\oliv-protocol\\contracts\\token\\OLIVTokenStorage.sol",
  "compiler": {
    "name": "solc",
    "version": "0.5.17+commit.d19bba13.Linux.g++"
  },
  "schemaVersion": "3.3.3",
  "updatedAt": "2021-01-01T09:39:51.771Z",
  "devdoc": {
    "methods": {}
  },
  "userdoc": {
    "methods": {}
  }
}