{
  "contractName": "Timelock",
  "abi": [
    {
      "inputs": [],
      "payable": false,
      "stateMutability": "nonpayable",
      "type": "constructor"
    },
    {
      "anonymous": false,
      "inputs": [
        {
          "indexed": true,
          "internalType": "bytes32",
          "name": "txHash",
          "type": "bytes32"
        },
        {
          "indexed": true,
          "internalType": "address",
          "name": "target",
          "type": "address"
        },
        {
          "indexed": false,
          "internalType": "uint256",
          "name": "value",
          "type": "uint256"
        },
        {
          "indexed": false,
          "internalType": "string",
          "name": "signature",
          "type": "string"
        },
        {
          "indexed": false,
          "internalType": "bytes",
          "name": "data",
          "type": "bytes"
        },
        {
          "indexed": false,
          "internalType": "uint256",
          "name": "eta",
          "type": "uint256"
        }
      ],
      "name": "CancelTransaction",
      "type": "event"
    },
    {
      "anonymous": false,
      "inputs": [
        {
          "indexed": true,
          "internalType": "bytes32",
          "name": "txHash",
          "type": "bytes32"
        },
        {
          "indexed": true,
          "internalType": "address",
          "name": "target",
          "type": "address"
        },
        {
          "indexed": false,
          "internalType": "uint256",
          "name": "value",
          "type": "uint256"
        },
        {
          "indexed": false,
          "internalType": "string",
          "name": "signature",
          "type": "string"
        },
        {
          "indexed": false,
          "internalType": "bytes",
          "name": "data",
          "type": "bytes"
        },
        {
          "indexed": false,
          "internalType": "uint256",
          "name": "eta",
          "type": "uint256"
        }
      ],
      "name": "ExecuteTransaction",
      "type": "event"
    },
    {
      "anonymous": false,
      "inputs": [
        {
          "indexed": true,
          "internalType": "address",
          "name": "newAdmin",
          "type": "address"
        }
      ],
      "name": "NewAdmin",
      "type": "event"
    },
    {
      "anonymous": false,
      "inputs": [
        {
          "indexed": true,
          "internalType": "uint256",
          "name": "newDelay",
          "type": "uint256"
        }
      ],
      "name": "NewDelay",
      "type": "event"
    },
    {
      "anonymous": false,
      "inputs": [
        {
          "indexed": true,
          "internalType": "address",
          "name": "newPendingAdmin",
          "type": "address"
        }
      ],
      "name": "NewPendingAdmin",
      "type": "event"
    },
    {
      "anonymous": false,
      "inputs": [
        {
          "indexed": true,
          "internalType": "bytes32",
          "name": "txHash",
          "type": "bytes32"
        },
        {
          "indexed": true,
          "internalType": "address",
          "name": "target",
          "type": "address"
        },
        {
          "indexed": false,
          "internalType": "uint256",
          "name": "value",
          "type": "uint256"
        },
        {
          "indexed": false,
          "internalType": "string",
          "name": "signature",
          "type": "string"
        },
        {
          "indexed": false,
          "internalType": "bytes",
          "name": "data",
          "type": "bytes"
        },
        {
          "indexed": false,
          "internalType": "uint256",
          "name": "eta",
          "type": "uint256"
        }
      ],
      "name": "QueueTransaction",
      "type": "event"
    },
    {
      "payable": true,
      "stateMutability": "payable",
      "type": "fallback"
    },
    {
      "constant": true,
      "inputs": [],
      "name": "GRACE_PERIOD",
      "outputs": [
        {
          "internalType": "uint256",
          "name": "",
          "type": "uint256"
        }
      ],
      "payable": false,
      "stateMutability": "view",
      "type": "function"
    },
    {
      "constant": true,
      "inputs": [],
      "name": "MAXIMUM_DELAY",
      "outputs": [
        {
          "internalType": "uint256",
          "name": "",
          "type": "uint256"
        }
      ],
      "payable": false,
      "stateMutability": "view",
      "type": "function"
    },
    {
      "constant": true,
      "inputs": [],
      "name": "MINIMUM_DELAY",
      "outputs": [
        {
          "internalType": "uint256",
          "name": "",
          "type": "uint256"
        }
      ],
      "payable": false,
      "stateMutability": "view",
      "type": "function"
    },
    {
      "constant": true,
      "inputs": [],
      "name": "admin",
      "outputs": [
        {
          "internalType": "address",
          "name": "",
          "type": "address"
        }
      ],
      "payable": false,
      "stateMutability": "view",
      "type": "function"
    },
    {
      "constant": true,
      "inputs": [],
      "name": "admin_initialized",
      "outputs": [
        {
          "internalType": "bool",
          "name": "",
          "type": "bool"
        }
      ],
      "payable": false,
      "stateMutability": "view",
      "type": "function"
    },
    {
      "constant": true,
      "inputs": [],
      "name": "delay",
      "outputs": [
        {
          "internalType": "uint256",
          "name": "",
          "type": "uint256"
        }
      ],
      "payable": false,
      "stateMutability": "view",
      "type": "function"
    },
    {
      "constant": true,
      "inputs": [],
      "name": "pendingAdmin",
      "outputs": [
        {
          "internalType": "address",
          "name": "",
          "type": "address"
        }
      ],
      "payable": false,
      "stateMutability": "view",
      "type": "function"
    },
    {
      "constant": true,
      "inputs": [
        {
          "internalType": "bytes32",
          "name": "",
          "type": "bytes32"
        }
      ],
      "name": "queuedTransactions",
      "outputs": [
        {
          "internalType": "bool",
          "name": "",
          "type": "bool"
        }
      ],
      "payable": false,
      "stateMutability": "view",
      "type": "function"
    },
    {
      "constant": false,
      "inputs": [
        {
          "internalType": "uint256",
          "name": "delay_",
          "type": "uint256"
        }
      ],
      "name": "setDelay",
      "outputs": [],
      "payable": false,
      "stateMutability": "nonpayable",
      "type": "function"
    },
    {
      "constant": false,
      "inputs": [],
      "name": "acceptAdmin",
      "outputs": [],
      "payable": false,
      "stateMutability": "nonpayable",
      "type": "function"
    },
    {
      "constant": false,
      "inputs": [
        {
          "internalType": "address",
          "name": "pendingAdmin_",
          "type": "address"
        }
      ],
      "name": "setPendingAdmin",
      "outputs": [],
      "payable": false,
      "stateMutability": "nonpayable",
      "type": "function"
    },
    {
      "constant": false,
      "inputs": [
        {
          "internalType": "address",
          "name": "target",
          "type": "address"
        },
        {
          "internalType": "uint256",
          "name": "value",
          "type": "uint256"
        },
        {
          "internalType": "string",
          "name": "signature",
          "type": "string"
        },
        {
          "internalType": "bytes",
          "name": "data",
          "type": "bytes"
        },
        {
          "internalType": "uint256",
          "name": "eta",
          "type": "uint256"
        }
      ],
      "name": "queueTransaction",
      "outputs": [
        {
          "internalType": "bytes32",
          "name": "",
          "type": "bytes32"
        }
      ],
      "payable": false,
      "stateMutability": "nonpayable",
      "type": "function"
    },
    {
      "constant": false,
      "inputs": [
        {
          "internalType": "address",
          "name": "target",
          "type": "address"
        },
        {
          "internalType": "uint256",
          "name": "value",
          "type": "uint256"
        },
        {
          "internalType": "string",
          "name": "signature",
          "type": "string"
        },
        {
          "internalType": "bytes",
          "name": "data",
          "type": "bytes"
        },
        {
          "internalType": "uint256",
          "name": "eta",
          "type": "uint256"
        }
      ],
      "name": "cancelTransaction",
      "outputs": [],
      "payable": false,
      "stateMutability": "nonpayable",
      "type": "function"
    },
    {
      "constant": false,
      "inputs": [
        {
          "internalType": "address",
          "name": "target",
          "type": "address"
        },
        {
          "internalType": "uint256",
          "name": "value",
          "type": "uint256"
        },
        {
          "internalType": "string",
          "name": "signature",
          "type": "string"
        },
        {
          "internalType": "bytes",
          "name": "data",
          "type": "bytes"
        },
        {
          "internalType": "uint256",
          "name": "eta",
          "type": "uint256"
        }
      ],
      "name": "executeTransaction",
      "outputs": [
        {
          "internalType": "bytes",
          "name": "",
          "type": "bytes"
        }
      ],
      "payable": true,
      "stateMutability": "payable",
      "type": "function"
    }
  ],
  "bytecode": "0x608060405234801561001057600080fd5b50600080546001600160a01b03191633179055620158886002556003805460ff19169055611b3e806100436000396000f3fe6080604052600436106100dd5760003560e01c80636fc1f57e1161007f578063c1a287e211610059578063c1a287e21461066e578063e177246e14610683578063f2b06537146106ad578063f851a440146106d7576100dd565b80636fc1f57e1461061b5780637d645fab14610644578063b1b43ae514610659576100dd565b80633a66f901116100bb5780633a66f901146102f85780634dd18bf514610468578063591fcdfe146104a85780636a42b8f814610606576100dd565b80630825f38f146100df5780630e18b681146102a557806326782247146102ba575b005b610230600480360360a08110156100f557600080fd5b73ffffffffffffffffffffffffffffffffffffffff8235169160208101359181019060608101604082013564010000000081111561013257600080fd5b82018360208201111561014457600080fd5b8035906020019184600183028401116401000000008311171561016657600080fd5b91908080601f01602080910402602001604051908101604052809392919081815260200183838082843760009201919091525092959493602081019350359150506401000000008111156101b957600080fd5b8201836020820111156101cb57600080fd5b803590602001918460018302840111640100000000831117156101ed57600080fd5b91908080601f01602080910402602001604051908101604052809392919081815260200183838082843760009201919091525092955050913592506106ec915050565b6040805160208082528351818301528351919283929083019185019080838360005b8381101561026a578181015183820152602001610252565b50505050905090810190601f1680156102975780820380516001836020036101000a031916815260200191505b509250505060405180910390f35b3480156102b157600080fd5b506100dd610d7b565b3480156102c657600080fd5b506102cf610e63565b6040805173ffffffffffffffffffffffffffffffffffffffff9092168252519081900360200190f35b34801561030457600080fd5b50610456600480360360a081101561031b57600080fd5b73ffffffffffffffffffffffffffffffffffffffff8235169160208101359181019060608101604082013564010000000081111561035857600080fd5b82018360208201111561036a57600080fd5b8035906020019184600183028401116401000000008311171561038c57600080fd5b91908080601f01602080910402602001604051908101604052809392919081815260200183838082843760009201919091525092959493602081019350359150506401000000008111156103df57600080fd5b8201836020820111156103f157600080fd5b8035906020019184600183028401116401000000008311171561041357600080fd5b91908080601f0160208091040260200160405190810160405280939291908181526020018383808284376000920191909152509295505091359250610e7f915050565b60408051918252519081900360200190f35b34801561047457600080fd5b506100dd6004803603602081101561048b57600080fd5b503573ffffffffffffffffffffffffffffffffffffffff166111f8565b3480156104b457600080fd5b506100dd600480360360a08110156104cb57600080fd5b73ffffffffffffffffffffffffffffffffffffffff8235169160208101359181019060608101604082013564010000000081111561050857600080fd5b82018360208201111561051a57600080fd5b8035906020019184600183028401116401000000008311171561053c57600080fd5b91908080601f016020809104026020016040519081016040528093929190818152602001838380828437600092019190915250929594936020810193503591505064010000000081111561058f57600080fd5b8201836020820111156105a157600080fd5b803590602001918460018302840111640100000000831117156105c357600080fd5b91908080601f0160208091040260200160405190810160405280939291908181526020018383808284376000920191909152509295505091359250611301915050565b34801561061257600080fd5b50610456611605565b34801561062757600080fd5b5061063061160b565b604080519115158252519081900360200190f35b34801561065057600080fd5b50610456611614565b34801561066557600080fd5b5061045661161b565b34801561067a57600080fd5b50610456611622565b34801561068f57600080fd5b506100dd600480360360208110156106a657600080fd5b5035611629565b3480156106b957600080fd5b50610630600480360360208110156106d057600080fd5b503561176c565b3480156106e357600080fd5b506102cf611781565b60005460609073ffffffffffffffffffffffffffffffffffffffff16331461075f576040517f08c379a000000000000000000000000000000000000000000000000000000000815260040180806020018281038252603881526020018061181d6038913960400191505060405180910390fd5b60008686868686604051602001808673ffffffffffffffffffffffffffffffffffffffff1673ffffffffffffffffffffffffffffffffffffffff1681526020018581526020018060200180602001848152602001838103835286818151815260200191508051906020019080838360005b838110156107e85781810151838201526020016107d0565b50505050905090810190601f1680156108155780820380516001836020036101000a031916815260200191505b50838103825285518152855160209182019187019080838360005b83811015610848578181015183820152602001610830565b50505050905090810190601f1680156108755780820380516001836020036101000a031916815260200191505b50604080517fffffffffffffffffffffffffffffffffffffffffffffffffffffffffffffffe0818403018152919052805160209091012060035490995060ff16159750610a3296505050505050505760008181526004602052604090205460ff1661092b576040517f08c379a000000000000000000000000000000000000000000000000000000000815260040180806020018281038252603d815260200180611970603d913960400191505060405180910390fd5b8261093461179d565b101561098b576040517f08c379a00000000000000000000000000000000000000000000000000000000081526004018080602001828103825260458152602001806118bf6045913960600191505060405180910390fd5b61099e836212750063ffffffff6117a116565b6109a661179d565b11156109fd576040517f08c379a000000000000000000000000000000000000000000000000000000000815260040180806020018281038252603381526020018061188c6033913960400191505060405180910390fd5b600081815260046020526040902080547fffffffffffffffffffffffffffffffffffffffffffffffffffffffffffffff001690555b6060855160001415610a45575083610b1a565b85805190602001208560405160200180837bffffffffffffffffffffffffffffffffffffffffffffffffffffffff19167bffffffffffffffffffffffffffffffffffffffffffffffffffffffff1916815260040182805190602001908083835b60208310610ae257805182527fffffffffffffffffffffffffffffffffffffffffffffffffffffffffffffffe09092019160209182019101610aa5565b6001836020036101000a0380198251168184511680821785525050505050509050019250505060405160208183030381529060405290505b600060608973ffffffffffffffffffffffffffffffffffffffff1689846040518082805190602001908083835b60208310610b8457805182527fffffffffffffffffffffffffffffffffffffffffffffffffffffffffffffffe09092019160209182019101610b47565b6001836020036101000a03801982511681845116808217855250505050505090500191505060006040518083038185875af1925050503d8060008114610be6576040519150601f19603f3d011682016040523d82523d6000602084013e610beb565b606091505b509150915081610c46576040517f08c379a000000000000000000000000000000000000000000000000000000000815260040180806020018281038252603d815260200180611a53603d913960400191505060405180910390fd5b8973ffffffffffffffffffffffffffffffffffffffff16847fa560e3198060a2f10670c1ec5b403077ea6ae93ca8de1c32b451dc1a943cd6e78b8b8b8b604051808581526020018060200180602001848152602001838103835286818151815260200191508051906020019080838360005b83811015610cd0578181015183820152602001610cb8565b50505050905090810190601f168015610cfd5780820380516001836020036101000a031916815260200191505b50838103825285518152855160209182019187019080838360005b83811015610d30578181015183820152602001610d18565b50505050905090810190601f168015610d5d5780820380516001836020036101000a031916815260200191505b50965050505050505060405180910390a39998505050505050505050565b60015473ffffffffffffffffffffffffffffffffffffffff163314610deb576040517f08c379a00000000000000000000000000000000000000000000000000000000081526004018080602001828103825260388152602001806119ad6038913960400191505060405180910390fd5b60008054337fffffffffffffffffffffffff0000000000000000000000000000000000000000918216178083556001805490921690915560405173ffffffffffffffffffffffffffffffffffffffff909116917f71614071b88dee5e0b2ae578a9dd7b2ebbe9ae832ba419dc0242cd065a290b6c91a2565b60015473ffffffffffffffffffffffffffffffffffffffff1681565b6000805473ffffffffffffffffffffffffffffffffffffffff163314610ef0576040517f08c379a0000000000000000000000000000000000000000000000000000000008152600401808060200182810382526036815260200180611a1d6036913960400191505060405180910390fd5b610f0a600254610efe61179d565b9063ffffffff6117a116565b821015610f62576040517f08c379a0000000000000000000000000000000000000000000000000000000008152600401808060200182810382526049815260200180611a906049913960600191505060405180910390fd5b60008686868686604051602001808673ffffffffffffffffffffffffffffffffffffffff1673ffffffffffffffffffffffffffffffffffffffff1681526020018581526020018060200180602001848152602001838103835286818151815260200191508051906020019080838360005b83811015610feb578181015183820152602001610fd3565b50505050905090810190601f1680156110185780820380516001836020036101000a031916815260200191505b50838103825285518152855160209182019187019080838360005b8381101561104b578181015183820152602001611033565b50505050905090810190601f1680156110785780820380516001836020036101000a031916815260200191505b5097505050505050505060405160208183030381529060405280519060200120905060016004600083815260200190815260200160002060006101000a81548160ff0219169083151502179055508673ffffffffffffffffffffffffffffffffffffffff16817f76e2796dc3a81d57b0e8504b647febcbeeb5f4af818e164f11eef8131a6a763f88888888604051808581526020018060200180602001848152602001838103835286818151815260200191508051906020019080838360005b83811015611150578181015183820152602001611138565b50505050905090810190601f16801561117d5780820380516001836020036101000a031916815260200191505b50838103825285518152855160209182019187019080838360005b838110156111b0578181015183820152602001611198565b50505050905090810190601f1680156111dd5780820380516001836020036101000a031916815260200191505b50965050505050505060405180910390a39695505050505050565b60035460ff16156112605733301461125b576040517f08c379a00000000000000000000000000000000000000000000000000000000081526004018080602001828103825260388152602001806119e56038913960400191505060405180910390fd5b61128c565b600380547fffffffffffffffffffffffffffffffffffffffffffffffffffffffffffffff001660011790555b600180547fffffffffffffffffffffffff00000000000000000000000000000000000000001673ffffffffffffffffffffffffffffffffffffffff83811691909117918290556040519116907f69d78e38a01985fbb1462961809b4b2d65531bc93b2b94037f3334b82ca4a75690600090a250565b60005473ffffffffffffffffffffffffffffffffffffffff163314611371576040517f08c379a00000000000000000000000000000000000000000000000000000000081526004018080602001828103825260378152602001806118556037913960400191505060405180910390fd5b60008585858585604051602001808673ffffffffffffffffffffffffffffffffffffffff1673ffffffffffffffffffffffffffffffffffffffff1681526020018581526020018060200180602001848152602001838103835286818151815260200191508051906020019080838360005b838110156113fa5781810151838201526020016113e2565b50505050905090810190601f1680156114275780820380516001836020036101000a031916815260200191505b50838103825285518152855160209182019187019080838360005b8381101561145a578181015183820152602001611442565b50505050905090810190601f1680156114875780820380516001836020036101000a031916815260200191505b5097505050505050505060405160208183030381529060405280519060200120905060006004600083815260200190815260200160002060006101000a81548160ff0219169083151502179055508573ffffffffffffffffffffffffffffffffffffffff16817f2fffc091a501fd91bfbff27141450d3acb40fb8e6d8382b243ec7a812a3aaf8787878787604051808581526020018060200180602001848152602001838103835286818151815260200191508051906020019080838360005b8381101561155f578181015183820152602001611547565b50505050905090810190601f16801561158c5780820380516001836020036101000a031916815260200191505b50838103825285518152855160209182019187019080838360005b838110156115bf5781810151838201526020016115a7565b50505050905090810190601f1680156115ec5780820380516001836020036101000a031916815260200191505b50965050505050505060405180910390a3505050505050565b60025481565b60035460ff1681565b62278d0081565b6201588881565b6212750081565b333014611681576040517f08c379a0000000000000000000000000000000000000000000000000000000008152600401808060200182810382526031815260200180611ad96031913960400191505060405180910390fd5b620158888110156116dd576040517f08c379a00000000000000000000000000000000000000000000000000000000081526004018080602001828103825260348152602001806119046034913960400191505060405180910390fd5b62278d00811115611739576040517f08c379a00000000000000000000000000000000000000000000000000000000081526004018080602001828103825260388152602001806119386038913960400191505060405180910390fd5b600281905560405181907f948b1f6a42ee138b7e34058ba85a37f716d55ff25ff05a763f15bed6a04c8d2c90600090a250565b60046020526000908152604090205460ff1681565b60005473ffffffffffffffffffffffffffffffffffffffff1681565b4290565b60008282018381101561181557604080517f08c379a000000000000000000000000000000000000000000000000000000000815260206004820152601b60248201527f536166654d6174683a206164646974696f6e206f766572666c6f770000000000604482015290519081900360640190fd5b939250505056fe54696d656c6f636b3a3a657865637574655472616e73616374696f6e3a2043616c6c206d75737420636f6d652066726f6d2061646d696e2e54696d656c6f636b3a3a63616e63656c5472616e73616374696f6e3a2043616c6c206d75737420636f6d652066726f6d2061646d696e2e54696d656c6f636b3a3a657865637574655472616e73616374696f6e3a205472616e73616374696f6e206973207374616c652e54696d656c6f636b3a3a657865637574655472616e73616374696f6e3a205472616e73616374696f6e206861736e2774207375727061737365642074696d65206c6f636b2e54696d656c6f636b3a3a73657444656c61793a2044656c6179206d75737420657863656564206d696e696d756d2064656c61792e54696d656c6f636b3a3a73657444656c61793a2044656c6179206d757374206e6f7420657863656564206d6178696d756d2064656c61792e54696d656c6f636b3a3a657865637574655472616e73616374696f6e3a205472616e73616374696f6e206861736e2774206265656e207175657565642e54696d656c6f636b3a3a61636365707441646d696e3a2043616c6c206d75737420636f6d652066726f6d2070656e64696e6741646d696e2e54696d656c6f636b3a3a73657450656e64696e6741646d696e3a2043616c6c206d75737420636f6d652066726f6d2054696d656c6f636b2e54696d656c6f636b3a3a71756575655472616e73616374696f6e3a2043616c6c206d75737420636f6d652066726f6d2061646d696e2e54696d656c6f636b3a3a657865637574655472616e73616374696f6e3a205472616e73616374696f6e20657865637574696f6e2072657665727465642e54696d656c6f636b3a3a71756575655472616e73616374696f6e3a20457374696d6174656420657865637574696f6e20626c6f636b206d75737420736174697366792064656c61792e54696d656c6f636b3a3a73657444656c61793a2043616c6c206d75737420636f6d652066726f6d2054696d656c6f636b2ea265627a7a7231582012e98326e630d4c46515eac011541ea498060b3592fba5b0556740df168ecf9064736f6c63430005110032",
  "source": "pragma solidity ^0.5.17;\r\n\r\n// Original file came from Compound: https://github.com/compound-finance/compound-protocol/blob/master/contracts/Timelock.sol\r\n\r\n\r\n// Original audit: https://blog.openzeppelin.com/compound-finance-patch-audit/\r\n// Overview:\r\n//    No Critical\r\n//    No High\r\n//\r\n// Changes made by OLIV after audit:\r\n//    Formatting, naming, & uint256 instead of uint\r\n\r\nimport \"../lib/SafeMath.sol\";\r\n\r\ncontract Timelock {\r\n    using SafeMath for uint256;\r\n\r\n    /// @notice An event emitted when the timelock admin changes\r\n    event NewAdmin(address indexed newAdmin);\r\n    /// @notice An event emitted when a new admin is staged in the timelock\r\n    event NewPendingAdmin(address indexed newPendingAdmin);\r\n    event NewDelay(uint indexed newDelay);\r\n    /// @notice An event emitted when a queued transaction is cancelled\r\n    event CancelTransaction(bytes32 indexed txHash, address indexed target, uint256 value, string signature,  bytes data, uint256 eta);\r\n    /// @notice An event emitted when a queued transaction is executed\r\n    event ExecuteTransaction(bytes32 indexed txHash, address indexed target, uint256 value, string signature,  bytes data, uint256 eta);\r\n    /// @notice An event emitted when a new transaction is queued\r\n    event QueueTransaction(bytes32 indexed txHash, address indexed target, uint256 value, string signature, bytes data, uint256 eta);\r\n\r\n    /// @notice the length of time after the delay has passed that a transaction can be executed\r\n    uint256 public constant GRACE_PERIOD = 14 days;\r\n    /// @notice the minimum length of the timelock delay\r\n    uint256 public constant MINIMUM_DELAY = 24 hours + 2*60*15; // have to be present for 2 rebases\r\n    /// @notice the maximum length of the timelock delay\r\n    uint256 public constant MAXIMUM_DELAY = 30 days;\r\n\r\n    address public admin;\r\n    address public pendingAdmin;\r\n    uint256 public delay;\r\n    bool public admin_initialized;\r\n\r\n    mapping (bytes32 => bool) public queuedTransactions;\r\n\r\n\r\n    constructor()\r\n        public\r\n    {\r\n        /* require(delay_ >= MINIMUM_DELAY, \"Timelock::constructor: Delay must exceed minimum delay.\");\r\n        require(delay_ <= MAXIMUM_DELAY, \"Timelock::setDelay: Delay must not exceed maximum delay.\"); */\r\n\r\n        admin = msg.sender;\r\n        delay = MINIMUM_DELAY;\r\n        admin_initialized = false;\r\n    }\r\n\r\n    function() external payable { }\r\n\r\n\r\n    /**\r\n    @notice sets the delay\r\n    @param delay_ the new delay\r\n     */\r\n    function setDelay(uint256 delay_)\r\n        public\r\n    {\r\n        require(msg.sender == address(this), \"Timelock::setDelay: Call must come from Timelock.\");\r\n        require(delay_ >= MINIMUM_DELAY, \"Timelock::setDelay: Delay must exceed minimum delay.\");\r\n        require(delay_ <= MAXIMUM_DELAY, \"Timelock::setDelay: Delay must not exceed maximum delay.\");\r\n        delay = delay_;\r\n\r\n        emit NewDelay(delay);\r\n    }\r\n\r\n\r\n    /// @notice sets the new admin address\r\n    function acceptAdmin()\r\n        public\r\n    {\r\n        require(msg.sender == pendingAdmin, \"Timelock::acceptAdmin: Call must come from pendingAdmin.\");\r\n        admin = msg.sender;\r\n        pendingAdmin = address(0);\r\n\r\n        emit NewAdmin(admin);\r\n    }\r\n\r\n    /**\r\n    @notice queues a new pendingAdmin\r\n    @param pendingAdmin_ the new pendingAdmin address\r\n     */\r\n    function setPendingAdmin(address pendingAdmin_)\r\n        public\r\n    {\r\n        // allows one time setting of admin for deployment purposes\r\n        if (admin_initialized) {\r\n          require(msg.sender == address(this), \"Timelock::setPendingAdmin: Call must come from Timelock.\");\r\n        } else {\r\n          admin_initialized = true;\r\n        }\r\n        pendingAdmin = pendingAdmin_;\r\n\r\n        emit NewPendingAdmin(pendingAdmin);\r\n    }\r\n\r\n\r\n    function queueTransaction(\r\n        address target,\r\n        uint256 value,\r\n        string memory signature,\r\n        bytes memory data,\r\n        uint256 eta\r\n    )\r\n        public\r\n        returns (bytes32)\r\n    {\r\n        require(msg.sender == admin, \"Timelock::queueTransaction: Call must come from admin.\");\r\n        require(eta >= getBlockTimestamp().add(delay), \"Timelock::queueTransaction: Estimated execution block must satisfy delay.\");\r\n\r\n        bytes32 txHash = keccak256(abi.encode(target, value, signature, data, eta));\r\n        queuedTransactions[txHash] = true;\r\n\r\n        emit QueueTransaction(txHash, target, value, signature, data, eta);\r\n        return txHash;\r\n    }\r\n\r\n    function cancelTransaction(\r\n        address target,\r\n        uint256 value,\r\n        string memory signature,\r\n        bytes memory data,\r\n        uint256 eta\r\n    )\r\n        public\r\n    {\r\n        require(msg.sender == admin, \"Timelock::cancelTransaction: Call must come from admin.\");\r\n\r\n        bytes32 txHash = keccak256(abi.encode(target, value, signature, data, eta));\r\n        queuedTransactions[txHash] = false;\r\n\r\n        emit CancelTransaction(txHash, target, value, signature, data, eta);\r\n    }\r\n\r\n    function executeTransaction(\r\n        address target,\r\n        uint256 value,\r\n        string memory signature,\r\n        bytes memory data,\r\n        uint256 eta\r\n    )\r\n        public\r\n        payable\r\n        returns (bytes memory)\r\n    {\r\n        require(msg.sender == admin, \"Timelock::executeTransaction: Call must come from admin.\");\r\n\r\n        // timelock not enforced prior to updating the admin. This should occur on\r\n        // deployment.\r\n        bytes32 txHash = keccak256(abi.encode(target, value, signature, data, eta));\r\n        if (admin_initialized) {\r\n          require(queuedTransactions[txHash], \"Timelock::executeTransaction: Transaction hasn't been queued.\");\r\n          require(getBlockTimestamp() >= eta, \"Timelock::executeTransaction: Transaction hasn't surpassed time lock.\");\r\n          require(getBlockTimestamp() <= eta.add(GRACE_PERIOD), \"Timelock::executeTransaction: Transaction is stale.\");\r\n\r\n          queuedTransactions[txHash] = false;\r\n        }\r\n\r\n\r\n        bytes memory callData;\r\n\r\n        if (bytes(signature).length == 0) {\r\n            callData = data;\r\n        } else {\r\n            callData = abi.encodePacked(bytes4(keccak256(bytes(signature))), data);\r\n        }\r\n\r\n        // solium-disable-next-line security/no-call-value\r\n        (bool success, bytes memory returnData) = target.call.value(value)(callData);\r\n        require(success, \"Timelock::executeTransaction: Transaction execution reverted.\");\r\n\r\n        emit ExecuteTransaction(txHash, target, value, signature, data, eta);\r\n\r\n        return returnData;\r\n    }\r\n\r\n    function getBlockTimestamp() internal view returns (uint256) {\r\n        // solium-disable-next-line security/no-block-members\r\n        return block.timestamp;\r\n    }\r\n}\r\n",
  "sourcePath": "D:/GitHub/OliveFarm/oliv-protocol/contracts/governance/TimeLock.sol",
  "compiler": {
    "name": "solc",
    "version": "0.5.17+commit.d19bba13.Linux.g++"
  },
  "schemaVersion": "3.3.3",
  "updatedAt": "2021-01-01T09:40:37.419Z",
  "networkType": "ethereum",
  "devdoc": {
    "methods": {
      "setDelay(uint256)": {
        "params": {
          "delay_": "the new delay"
        }
      },
      "setPendingAdmin(address)": {
        "params": {
          "pendingAdmin_": "the new pendingAdmin address"
        }
      }
    }
  },
  "userdoc": {
    "methods": {
      "acceptAdmin()": {
        "notice": "sets the new admin address"
      },
      "setDelay(uint256)": {
        "notice": "sets the delay"
      },
      "setPendingAdmin(address)": {
        "notice": "queues a new pendingAdmin"
      }
    }
  }
}